{
  "address": "0x8EEc9d3d8E26d28879247941763CE67515a7dcd8",
  "abi": [
    {
      "inputs": [
        {
          "internalType": "address",
          "name": "_owner",
          "type": "address"
        }
      ],
      "stateMutability": "nonpayable",
      "type": "constructor"
    },
    {
      "inputs": [
        {
          "internalType": "address",
          "name": "owner",
          "type": "address"
        }
      ],
      "name": "OwnableInvalidOwner",
      "type": "error"
    },
    {
      "inputs": [
        {
          "internalType": "address",
          "name": "account",
          "type": "address"
        }
      ],
      "name": "OwnableUnauthorizedAccount",
      "type": "error"
    },
    {
      "inputs": [],
      "name": "ReentrancyGuardReentrantCall",
      "type": "error"
    },
    {
      "anonymous": false,
      "inputs": [
        {
          "indexed": false,
          "internalType": "uint256",
          "name": "projectId",
          "type": "uint256"
        },
        {
          "indexed": false,
          "internalType": "uint256",
          "name": "amount",
          "type": "uint256"
        }
      ],
      "name": "FundsReleased",
      "type": "event"
    },
    {
      "anonymous": false,
      "inputs": [
        {
          "indexed": true,
          "internalType": "address",
          "name": "previousOwner",
          "type": "address"
        },
        {
          "indexed": true,
          "internalType": "address",
          "name": "newOwner",
          "type": "address"
        }
      ],
      "name": "OwnershipTransferred",
      "type": "event"
    },
    {
      "anonymous": false,
      "inputs": [
        {
          "indexed": false,
          "internalType": "uint256",
          "name": "projectId",
          "type": "uint256"
        },
        {
          "indexed": false,
          "internalType": "address",
          "name": "client",
          "type": "address"
        },
        {
          "indexed": false,
          "internalType": "uint256",
          "name": "amount",
          "type": "uint256"
        }
      ],
      "name": "ProjectCreated",
      "type": "event"
    },
    {
      "anonymous": false,
      "inputs": [
        {
          "indexed": false,
          "internalType": "uint256",
          "name": "projectId",
          "type": "uint256"
        },
        {
          "indexed": false,
          "internalType": "string",
          "name": "resultLink",
          "type": "string"
        }
      ],
      "name": "ProjectDelivered",
      "type": "event"
    },
    {
      "inputs": [
        {
          "internalType": "uint256",
          "name": "_projectId",
          "type": "uint256"
        }
      ],
      "name": "approveAndRelease",
      "outputs": [],
      "stateMutability": "nonpayable",
      "type": "function"
    },
    {
      "inputs": [
        {
          "internalType": "uint256",
          "name": "_projectId",
          "type": "uint256"
        }
      ],
      "name": "claimExpiredFunds",
      "outputs": [],
      "stateMutability": "nonpayable",
      "type": "function"
    },
    {
      "inputs": [
        {
          "internalType": "string",
          "name": "_description",
          "type": "string"
        },
        {
          "internalType": "string",
          "name": "_serviceType",
          "type": "string"
        },
        {
          "internalType": "uint256",
          "name": "_daysToDeadline",
          "type": "uint256"
        }
      ],
      "name": "createProject",
      "outputs": [],
      "stateMutability": "payable",
      "type": "function"
    },
    {
      "inputs": [],
      "name": "getVisibleProjects",
      "outputs": [
        {
          "internalType": "uint256[]",
          "name": "",
          "type": "uint256[]"
        }
      ],
      "stateMutability": "view",
      "type": "function"
    },
    {
      "inputs": [
        {
          "internalType": "uint256",
          "name": "_projectId",
          "type": "uint256"
        },
        {
          "internalType": "string",
          "name": "_resultLink",
          "type": "string"
        }
      ],
      "name": "markAsDelivered",
      "outputs": [],
      "stateMutability": "nonpayable",
      "type": "function"
    },
    {
      "inputs": [],
      "name": "owner",
      "outputs": [
        {
          "internalType": "address",
          "name": "",
          "type": "address"
        }
      ],
      "stateMutability": "view",
      "type": "function"
    },
    {
      "inputs": [],
      "name": "projectCount",
      "outputs": [
        {
          "internalType": "uint256",
          "name": "",
          "type": "uint256"
        }
      ],
      "stateMutability": "view",
      "type": "function"
    },
    {
      "inputs": [
        {
          "internalType": "uint256",
          "name": "",
          "type": "uint256"
        }
      ],
      "name": "projects",
      "outputs": [
        {
          "internalType": "address",
          "name": "client",
          "type": "address"
        },
        {
          "internalType": "uint256",
          "name": "amount",
          "type": "uint256"
        },
        {
          "internalType": "uint256",
          "name": "deadline",
          "type": "uint256"
        },
        {
          "internalType": "uint256",
          "name": "deliveryTimestamp",
          "type": "uint256"
        },
        {
          "internalType": "enum DevWeb.State",
          "name": "status",
          "type": "uint8"
        },
        {
          "internalType": "string",
          "name": "description",
          "type": "string"
        },
        {
          "internalType": "string",
          "name": "serviceType",
          "type": "string"
        },
        {
          "internalType": "string",
          "name": "resultLink",
          "type": "string"
        }
      ],
      "stateMutability": "view",
      "type": "function"
    },
    {
      "inputs": [],
      "name": "renounceOwnership",
      "outputs": [],
      "stateMutability": "nonpayable",
      "type": "function"
    },
    {
      "inputs": [
        {
          "internalType": "uint256",
          "name": "_projectId",
          "type": "uint256"
        }
      ],
      "name": "requestRefund",
      "outputs": [],
      "stateMutability": "nonpayable",
      "type": "function"
    },
    {
      "inputs": [
        {
          "internalType": "address",
          "name": "newOwner",
          "type": "address"
        }
      ],
      "name": "transferOwnership",
      "outputs": [],
      "stateMutability": "nonpayable",
      "type": "function"
    }
  ],
  "transactionHash": "0x8756a75df43ac3e32bc1305c95b57c0ec837516753715597d7a3ecde12e827d3",
  "args": [
    "0xb64964cE6f8C2895b320DB969eEE7226Fc28DfbC"
  ],
  "numDeployments": 1,
  "solcInputHash": "1abe894a240ea852916a9a0f159775e5",
  "bytecode": "0x608060405234801561001057600080fd5b5060405161147438038061147483398101604081905261002f916100c2565b806001600160a01b03811661005e57604051631e4fbdf760e01b81526000600482015260240160405180910390fd5b61006781610072565b5050600180556100f2565b600080546001600160a01b038381166001600160a01b0319831681178455604051919092169283917f8be0079c531659141344cd1fd0a4f28419497f9722a3daafe3b4186f6b6457e09190a35050565b6000602082840312156100d457600080fd5b81516001600160a01b03811681146100eb57600080fd5b9392505050565b611373806101016000396000f3fe60806040526004361061009b5760003560e01c806337ed05c41161006457806337ed05c414610158578063715018a6146101785780638da5cb5b1461018d578063a4b2409e146101b5578063dcb05611146101d5578063f2fde38b146101f557600080fd5b80622ad05c146100a05780630a45a468146100cb578063107046bd146100ed57806323c554481461012157806336fbad2614610134575b600080fd5b3480156100ac57600080fd5b506100b5610215565b6040516100c29190610e91565b60405180910390f35b3480156100d757600080fd5b506100eb6100e6366004610f78565b6103d9565b005b3480156100f957600080fd5b5061010d610108366004610fbf565b6104f1565b6040516100c2989796959493929190611034565b6100eb61012f3660046110c7565b6106dc565b34801561014057600080fd5b5061014a60035481565b6040519081526020016100c2565b34801561016457600080fd5b506100eb610173366004610fbf565b61091b565b34801561018457600080fd5b506100eb610b0b565b34801561019957600080fd5b506000546040516001600160a01b0390911681526020016100c2565b3480156101c157600080fd5b506100eb6101d0366004610fbf565b610b1f565b3480156101e157600080fd5b506100eb6101f0366004610fbf565b610cf0565b34801561020157600080fd5b506100eb610210366004611134565b610daf565b60606102296000546001600160a01b031690565b6001600160a01b031633036102ce57600060035467ffffffffffffffff81111561025557610255610ed5565b60405190808252806020026020018201604052801561027e578160200160208202803683370190505b50905060005b6003548110156102c85761029981600161117a565b8282815181106102ab576102ab611193565b6020908102919091010152806102c0816111a9565b915050610284565b50919050565b600060015b600354811161031c57600081815260026020526040902054336001600160a01b039091160361030a5781610306816111a9565b9250505b80610314816111a9565b9150506102d3565b5060008167ffffffffffffffff81111561033857610338610ed5565b604051908082528060200260200182016040528015610361578160200160208202803683370190505b509050600060015b60035481116103d057600081815260026020526040902054336001600160a01b03909116036103be57808383815181106103a5576103a5611193565b6020908102919091010152816103ba816111a9565b9250505b806103c8816111a9565b915050610369565b50909392505050565b6103e1610dea565b600082815260026020526040812090600482015460ff16600381111561040957610409610fd8565b1461044d5760405162461bcd60e51b815260206004820152600f60248201526e45737461646f20696e76616c69646f60881b60448201526064015b60405180910390fd5b600082511161048f5760405162461bcd60e51b815260206004820152600e60248201526d4c696e6b2072657175657269646f60901b6044820152606401610444565b60048101805460ff19166001179055426003820155600781016104b28382611245565b507fffd03eabc14e312ec827bf1db077e2fc12f13e7e34ff9015138d6c1fef2ab08783836040516104e4929190611305565b60405180910390a1505050565b60026020819052600091825260409091208054600182015492820154600383015460048401546005850180546001600160a01b0390951696959394929360ff9092169261053d906111c2565b80601f0160208091040260200160405190810160405280929190818152602001828054610569906111c2565b80156105b65780601f1061058b576101008083540402835291602001916105b6565b820191906000526020600020905b81548152906001019060200180831161059957829003601f168201915b5050505050908060060180546105cb906111c2565b80601f01602080910402602001604051908101604052809291908181526020018280546105f7906111c2565b80156106445780601f1061061957610100808354040283529160200191610644565b820191906000526020600020905b81548152906001019060200180831161062757829003601f168201915b505050505090806007018054610659906111c2565b80601f0160208091040260200160405190810160405280929190818152602001828054610685906111c2565b80156106d25780601f106106a7576101008083540402835291602001916106d2565b820191906000526020600020905b8154815290600101906020018083116106b557829003601f168201915b5050505050905088565b6000341161072c5760405162461bcd60e51b815260206004820152601e60248201527f4465626573206465706f736974617220656c20707265737570756573746f00006044820152606401610444565b6000546001600160a01b031633036107865760405162461bcd60e51b815260206004820152601d60248201527f456c206f776e6572206e6f2070756564652073657220636c69656e74650000006044820152606401610444565b60038054906000610796836111a9565b909155505060408051610100810182523381523460208201529081016107bf8362015180611326565b6107c9904261117a565b815260200160008152602001600060038111156107e8576107e8610fd8565b81526020018481526020018381526020016040518060200160405280600081525081525060026000600354815260200190815260200160002060008201518160000160006101000a8154816001600160a01b0302191690836001600160a01b0316021790555060208201518160010155604082015181600201556060820151816003015560808201518160040160006101000a81548160ff0219169083600381111561089657610896610fd8565b021790555060a082015160058201906108af9082611245565b5060c082015160068201906108c49082611245565b5060e082015160078201906108d99082611245565b50506003546040805191825233602083015234908201527f1b9d0946c0a6f3b3a57782ad25a4553bd5bcf1f1a252068eafc757670aad573a91506060016104e4565b610923610dea565b61092b610e17565b60008181526002602052604090206001600482015460ff16600381111561095457610954610fd8565b146109a15760405162461bcd60e51b815260206004820152601a60248201527f4e6f20656e20657370657261206465206170726f626163696f6e0000000000006044820152606401610444565b60038101546109b39062093a8061117a565b421015610a025760405162461bcd60e51b815260206004820152601760248201527f5469656d706f206465206772616369612061637469766f0000000000000000006044820152606401610444565b60018101805460048301805460ff1916600217905560009182905581549091906001600160a01b03166001600160a01b03168260405160006040518083038185875af1925050503d8060008114610a75576040519150601f19603f3d011682016040523d82523d6000602084013e610a7a565b606091505b5050905080610ac35760405162461bcd60e51b81526020600482015260156024820152745472616e73666572656e6369612066616c6c69646160581b6044820152606401610444565b60408051858152602081018490527f80230996023d69b50793fa73f1919127c9d8e741d3989743c479169f22e7a288910160405180910390a1505050610b0860018055565b50565b610b13610dea565b610b1d6000610e41565b565b610b27610e17565b600081815260026020526040902080546001600160a01b03163314610b835760405162461bcd60e51b81526020600482015260126024820152714e6f206572657320656c20636c69656e746560701b6044820152606401610444565b6000600482015460ff166003811115610b9e57610b9e610fd8565b14610beb5760405162461bcd60e51b815260206004820152601860248201527f596120656e7472656761646f206f2070726f63657361646f00000000000000006044820152606401610444565b80600201544211610c315760405162461bcd60e51b815260206004820152601060248201526f506c617a6f206e6f2076656e6369646f60801b6044820152606401610444565b60018101805460048301805460ff1916600317905560009182905582546040519192916001600160a01b039091169083908381818185875af1925050503d8060008114610c9a576040519150601f19603f3d011682016040523d82523d6000602084013e610c9f565b606091505b5050905080610ce45760405162461bcd60e51b81526020600482015260116024820152705265656d626f6c736f2066616c6c69646f60781b6044820152606401610444565b505050610b0860018055565b610cf8610e17565b600081815260026020526040902080546001600160a01b03163314610d545760405162461bcd60e51b81526020600482015260126024820152714e6f206572657320656c20636c69656e746560701b6044820152606401610444565b6001600482015460ff166003811115610d6f57610d6f610fd8565b14610a025760405162461bcd60e51b815260206004820152601060248201526f27379032b73a3932b3b0b2379030bab760811b6044820152606401610444565b610db7610dea565b6001600160a01b038116610de157604051631e4fbdf760e01b815260006004820152602401610444565b610b0881610e41565b6000546001600160a01b03163314610b1d5760405163118cdaa760e01b8152336004820152602401610444565b600260015403610e3a57604051633ee5aeb560e01b815260040160405180910390fd5b6002600155565b600080546001600160a01b038381166001600160a01b0319831681178455604051919092169283917f8be0079c531659141344cd1fd0a4f28419497f9722a3daafe3b4186f6b6457e09190a35050565b6020808252825182820181905260009190848201906040850190845b81811015610ec957835183529284019291840191600101610ead565b50909695505050505050565b634e487b7160e01b600052604160045260246000fd5b600082601f830112610efc57600080fd5b813567ffffffffffffffff80821115610f1757610f17610ed5565b604051601f8301601f19908116603f01168101908282118183101715610f3f57610f3f610ed5565b81604052838152866020858801011115610f5857600080fd5b836020870160208301376000602085830101528094505050505092915050565b60008060408385031215610f8b57600080fd5b82359150602083013567ffffffffffffffff811115610fa957600080fd5b610fb585828601610eeb565b9150509250929050565b600060208284031215610fd157600080fd5b5035919050565b634e487b7160e01b600052602160045260246000fd5b6000815180845260005b8181101561101457602081850181015186830182015201610ff8565b506000602082860101526020601f19601f83011685010191505092915050565b6001600160a01b038916815260208101889052604081018790526060810186905260006101006004871061107857634e487b7160e01b600052602160045260246000fd5b8660808401528060a084015261109081840187610fee565b905082810360c08401526110a48186610fee565b905082810360e08401526110b88185610fee565b9b9a5050505050505050505050565b6000806000606084860312156110dc57600080fd5b833567ffffffffffffffff808211156110f457600080fd5b61110087838801610eeb565b9450602086013591508082111561111657600080fd5b5061112386828701610eeb565b925050604084013590509250925092565b60006020828403121561114657600080fd5b81356001600160a01b038116811461115d57600080fd5b9392505050565b634e487b7160e01b600052601160045260246000fd5b8082018082111561118d5761118d611164565b92915050565b634e487b7160e01b600052603260045260246000fd5b6000600182016111bb576111bb611164565b5060010190565b600181811c908216806111d657607f821691505b6020821081036102c857634e487b7160e01b600052602260045260246000fd5b601f82111561124057600081815260208120601f850160051c8101602086101561121d5750805b601f850160051c820191505b8181101561123c57828155600101611229565b5050505b505050565b815167ffffffffffffffff81111561125f5761125f610ed5565b6112738161126d84546111c2565b846111f6565b602080601f8311600181146112a857600084156112905750858301515b600019600386901b1c1916600185901b17855561123c565b600085815260208120601f198616915b828110156112d7578886015182559484019460019091019084016112b8565b50858210156112f55787850151600019600388901b60f8161c191681555b5050505050600190811b01905550565b82815260406020820152600061131e6040830184610fee565b949350505050565b808202811582820484141761118d5761118d61116456fea2646970667358221220274e2a2937543f0fc24f473cc0aa54ab4d83680ff36c69c99cb8dd1ccd9856ac64736f6c63430008140033",
  "devdoc": {
    "errors": {
      "OwnableInvalidOwner(address)": [
        {
          "details": "The owner is not a valid owner account. (eg. `address(0)`)"
        }
      ],
      "OwnableUnauthorizedAccount(address)": [
        {
          "details": "The caller account is not authorized to perform an operation."
        }
      ],
      "ReentrancyGuardReentrantCall()": [
        {
          "details": "Unauthorized reentrant call."
        }
      ]
    },
    "kind": "dev",
    "methods": {
      "owner()": {
        "details": "Returns the address of the current owner."
      },
      "renounceOwnership()": {
        "details": "Leaves the contract without owner. It will not be possible to call `onlyOwner` functions. Can only be called by the current owner. NOTE: Renouncing ownership will leave the contract without an owner, thereby disabling any functionality that is only available to the owner."
      },
      "transferOwnership(address)": {
        "details": "Transfers ownership of the contract to a new account (`newOwner`). Can only be called by the current owner."
      }
    },
    "version": 1
  },
  "userdoc": {
    "kind": "user",
    "methods": {
      "approveAndRelease(uint256)": {
        "notice": "El cliente aprueba el trabajo y libera los fondos al owner."
      },
      "claimExpiredFunds(uint256)": {
        "notice": "Reclamar fondos si el cliente no aprueba tras 7 dias de la entrega."
      },
      "createProject(string,string,uint256)": {
        "notice": "El cliente crea el proyecto y deposita los fondos."
      },
      "getVisibleProjects()": {
        "notice": "Devuelve los IDs de proyectos visibles segun quien llame. Si es el admin ve todo. Si es cliente ve los suyos."
      },
      "markAsDelivered(uint256,string)": {
        "notice": "Marcar como entregado (Solo el freelancer/owner)."
      },
      "requestRefund(uint256)": {
        "notice": "Reembolso para el cliente si se vence el plazo sin entrega."
      }
    },
    "version": 1
  },
  "storageLayout": {
    "storage": [
      {
        "astId": 8,
        "contract": "contracts/DevWeb.sol:DevWeb",
        "label": "_owner",
        "offset": 0,
        "slot": "0",
        "type": "t_address"
      },
      {
        "astId": 188,
        "contract": "contracts/DevWeb.sol:DevWeb",
        "label": "_status",
        "offset": 0,
        "slot": "1",
        "type": "t_uint256"
      },
      {
        "astId": 282,
        "contract": "contracts/DevWeb.sol:DevWeb",
        "label": "projects",
        "offset": 0,
        "slot": "2",
        "type": "t_mapping(t_uint256,t_struct(Project)277_storage)"
      },
      {
        "astId": 284,
        "contract": "contracts/DevWeb.sol:DevWeb",
        "label": "projectCount",
        "offset": 0,
        "slot": "3",
        "type": "t_uint256"
      }
    ],
    "types": {
      "t_address": {
        "encoding": "inplace",
        "label": "address",
        "numberOfBytes": "20"
      },
      "t_enum(State)259": {
        "encoding": "inplace",
        "label": "enum DevWeb.State",
        "numberOfBytes": "1"
      },
      "t_mapping(t_uint256,t_struct(Project)277_storage)": {
        "encoding": "mapping",
        "key": "t_uint256",
        "label": "mapping(uint256 => struct DevWeb.Project)",
        "numberOfBytes": "32",
        "value": "t_struct(Project)277_storage"
      },
      "t_string_storage": {
        "encoding": "bytes",
        "label": "string",
        "numberOfBytes": "32"
      },
      "t_struct(Project)277_storage": {
        "encoding": "inplace",
        "label": "struct DevWeb.Project",
        "members": [
          {
            "astId": 261,
            "contract": "contracts/DevWeb.sol:DevWeb",
            "label": "client",
            "offset": 0,
            "slot": "0",
            "type": "t_address"
          },
          {
            "astId": 263,
            "contract": "contracts/DevWeb.sol:DevWeb",
            "label": "amount",
            "offset": 0,
            "slot": "1",
            "type": "t_uint256"
          },
          {
            "astId": 265,
            "contract": "contracts/DevWeb.sol:DevWeb",
            "label": "deadline",
            "offset": 0,
            "slot": "2",
            "type": "t_uint256"
          },
          {
            "astId": 267,
            "contract": "contracts/DevWeb.sol:DevWeb",
            "label": "deliveryTimestamp",
            "offset": 0,
            "slot": "3",
            "type": "t_uint256"
          },
          {
            "astId": 270,
            "contract": "contracts/DevWeb.sol:DevWeb",
            "label": "status",
            "offset": 0,
            "slot": "4",
            "type": "t_enum(State)259"
          },
          {
            "astId": 272,
            "contract": "contracts/DevWeb.sol:DevWeb",
            "label": "description",
            "offset": 0,
            "slot": "5",
            "type": "t_string_storage"
          },
          {
            "astId": 274,
            "contract": "contracts/DevWeb.sol:DevWeb",
            "label": "serviceType",
            "offset": 0,
            "slot": "6",
            "type": "t_string_storage"
          },
          {
            "astId": 276,
            "contract": "contracts/DevWeb.sol:DevWeb",
            "label": "resultLink",
            "offset": 0,
            "slot": "7",
            "type": "t_string_storage"
          }
        ],
        "numberOfBytes": "256"
      },
      "t_uint256": {
        "encoding": "inplace",
        "label": "uint256",
        "numberOfBytes": "32"
      }
    }
  }
}